:0200000007fff8
:0200010007f501
:0200020007d81d
:0200030007a74d
:02000400076390
:02000500070de5
:0200060006a64c
:02000700062ec3
:0200080005a74a
:020009000513dd
:02000a0004717f
:02000b0003c52b
:02000c00030fe0
:02000d0002529d
:02000e00018f60
:02000f0000c926
:020010000000ee
:020011000f37a7
:020012000e716d
:020013000dae30
:020014000cf1ed
:020015000c3ba2
:020016000b8f4e
:020017000aedf0
:020018000a5983
:0200190009d20a
:02001a00095a81
:02001b0008f3e8
:02001c00089d3d
:02001d00085980
:02001e000828b0
:02001f00080bcc
:020020000801d5
:02002100080bca
:020022000828ac
:0200230008597a
:02002400089d35
:0200250008f3de
:02002600095a75
:0200270009d2fc
:020028000a5973
:020029000aedde
:02002a000b8f3a
:02002b000c3b8c
:02002c000cf1d5
:02002d000dae16
:02002e000e7151
:02002f000f3789
:020030000000ce
:0200310000c904
:02003200018f3c
:02003300025277
:02003400030fb8
:0200350003c501
:02003600047153
:020037000513af
:0200380005a71a
:02003900062e91
:02003a0006a618
:02003b00070daf
:02003c00076358
:02003d0007a713
:02003e0007d8e1
:02003f0007f5c3
:00000001FF
