:0200000007fff8
:0200010007fff7
:0200020007fff6
:0200030007fff5
:0200040007fff4
:0200050007fff3
:0200060007fff2
:0200070007fff1
:0200080007fff0
:0200090007ffef
:02000a0007ffee
:02000b0007ffed
:02000c0007ffec
:02000d0007ffeb
:02000e0007ffea
:02000f0007feea
:0200100007fee9
:0200110007fee8
:0200120007fee7
:0200130007fee6
:0200140007fee5
:0200150007fee4
:0200160007fee3
:0200170007fee2
:0200180007fee1
:0200190007fde1
:02001a0007fde0
:02001b0007fddf
:02001c0007fdde
:02001d0007fddd
:02001e0007fddc
:02001f0007fddb
:0200200007fdda
:0200210007fcda
:0200220007fcd9
:0200230007fcd8
:0200240007fcd7
:0200250007fcd6
:0200260007fcd5
:0200270007fbd5
:0200280007fbd4
:0200290007fbd3
:02002a0007fbd2
:02002b0007fbd1
:02002c0007fad1
:02002d0007fad0
:02002e0007facf
:02002f0007face
:0200300007f9ce
:0200310007f9cd
:0200320007f9cc
:0200330007f9cb
:0200340007f8cb
:0200350007f8ca
:0200360007f8c9
:0200370007f8c8
:0200380007f7c8
:0200390007f7c7
:02003a0007f7c6
:02003b0007f7c5
:02003c0007f6c5
:02003d0007f6c4
:02003e0007f6c3
:02003f0007f5c3
:00000001FF
